:020000040800F2
:10000000900900200501000849200008CD160008CD
:1000100045200008CF0100088D24000800000000E2
:100020000000000000000000000000007120000837
:10003000D3010008000000004B20000873200008D6
:100040001F0100081F0100081F0100081F01000810
:100050001F0100081F0100081F0100081F01000800
:100060001F0100081F0100081F0100081F010008F0
:100070001F0100081F0100081F0100081F010008E0
:100080001F0100081F0100081F0100081F010008D0
:100090001F0100081F0100081F0100081F010008C0
:1000A0001F010008352100081F0100081F0100087A
:1000B0001F0100081F010008452100081F0100085A
:1000C0001F0100081F0100081F0100081F01000890
:1000D0001F0100087D2400081F0100081F010008FF
:1000E0001F0100081F0100081F010008DFF810D0E1
:1000F00000F02CF800480047BD240008AFF3008052
:10010000900900200648804706480047FEE7FEE7C2
:10011000FEE7FEE7FEE7FEE7FEE7FEE7FEE7FEE7B7
:10012000DD200008ED000008D2B201E000F8012B4C
:10013000491EFBD270470022F6E710B513460A4667
:1001400004461946FFF7F0FF204610BD064C074D48
:1001500006E0E06840F0010394E807009847103497
:10016000AC42F6D3FFF7C6FF7825000898250008B3
:1001700070B58D1810F8014B14F0030201D110F87E
:10018000012B231106D110F8013B03E010F8016B9D
:1001900001F8016B521EF9D1ABB110F8012B04F03C
:1001A0000C048A1A0C2C03D0A2EB84129B1C08E0CE
:1001B00010F8014BA2EB0422F8E712F8014B01F80A
:1001C000014B5B1EF9D5A942D4D3002070BD00BFFE
:1001D000FEE7704710B5044604F08000802805D182
:1001E00001221146404800F012FA04E000220121E9
:1001F0003D4800F00CFA6006040E04F080008028F0
:1002000005D101220221384800F001FA04E0002261
:100210000221354800F0FBF96006040E04F080006E
:10022000802805D1012204212F4800F0F0F904E0D4
:10023000002204212C4800F0EAF96006040E04F0C4
:100240008000802805D101220821274800F0DFF92D
:1002500004E000220821244800F0D9F96006040EC9
:1002600004F08000802805D1012210211E4800F0F2
:10027000CEF904E0002210211B4800F0C8F9600606
:10028000040E04F08000802805D1012220211648A8
:1002900000F0BDF904E000222021134800F0B7F976
:1002A0006006040E04F08000802805D10122402160
:1002B0000D4800F0ACF904E0002240210A4800F0AB
:1002C000A6F96006040E04F08000802805D1012202
:1002D0008021054800F09BF904E0002280210248BB
:1002E00000F095F910BD000000080140704790F83B
:1002F00021100022022905D00421816380F82020EA
:100300000120704701680B6823F00E030B60016841
:100310000B6823F001030B6090F84030D0F83CC02C
:10032000012101FA03F3CCF8043080F8211080F8A1
:10033000202010467047000010B5002490F82110CE
:10034000022903D004218163012437E001680A688F
:1003500022F00E020A6001680A6822F001020A60B7
:10036000174A0168914201D101211CE0154A9142CE
:1003700001D1102117E0144A914201D1891512E0F0
:10038000124A914201D189140DE0114A914202D1E1
:100390004FF4803107E00F4A914202D14FF48011AF
:1003A00001E04FF080710C4A5160012180F821106A
:1003B000002180F82010416B01B18847204610BD14
:1003C000080002401C00024030000240440002408D
:1003D000580002406C0002400000024070B5044624
:1003E00000F01CF90546B4F1FF3F02D00448007844
:1003F000044400F013F9401BA042FAD370BD000082
:10040000440400202DE9F84F4FF0000C00230A6847
:10041000002A7DD0DFF8DC810F2708F1040909F1FB
:10042000040A0AF1040B012202FA0CF60A683240AF
:10043000B2426ED1DFF8C0E14C68A4EB0E05744502
:100440002BD00DDC032C34D005DC34B3012C19D0B7
:10045000022C2FD11BE0112C16D0122C2AD119E01E
:10046000B5F5881F19D006DCB5F5803F15D0B5F578
:10047000801F1FD111E0B5F5001F0ED0B5F5041F88
:1004800018D10AE0CB6815E0CB681B1D12E0CB68E1
:1004900008330FE0CB680C330CE08B6823B1012BE1
:1004A00004D00823466105E0042303E00823066125
:1004B00000E00023B2F5807F01D2054601E000F1A3
:1004C000040502D24FEA8C0403E0ACF108044FEAC1
:1004D00084042E6807FA04FE26EA0E0603FA04F4E2
:1004E00046EA04042C604C6814F0805F79D0434CD9
:1004F000A56945F00105A561A46904F00104009413
:100500002CF0030404F1804404F58034A66801E073
:100510006EE066E04FEA8C754FEA157507FA05FE46
:1005200026EA0E0EA0F18046B6F584361ED0A0F164
:100530008046B6F586361BD0A0F18046B6F58836E3
:1005400018D0A0F18046B6F58A3615D0042606FAF2
:1005500005F545EA0E05A5604C6814F4803F0DD002
:10056000D8F800401443C8F800400CE00026EEE73D
:100570000126ECE70226EAE70326E8E7D8F8004080
:100580009443C8F800404C6814F4003F05D0D9F8F3
:1005900000401443C9F8004004E0D9F800409443F7
:1005A000C9F800404C6814F4801F05D0DAF8004008
:1005B0001443CAF8004004E0DAF800409443CAF853
:1005C00000404C6814F4001F05D0DBF800402243C3
:1005D000CBF8002005E0DBF8004024EA0202CBF86B
:1005E00000200CF1010C0A6832FA0CF27FF41BAF08
:1005F000BDE8F88F00040140000011100010024017
:100600008068084201D00120704700207047002A0E
:1006100001D0016170470904016170470148806899
:1006200070470000440400200248816802781144A9
:10063000816070474404002010B50748016841F00C
:1006400010010160032000F097F8002000F006F888
:1006500000F026F8002010BD0020024070B50446CE
:100660000D4D4FF47A712878B1FBF0F00B49096811
:10067000B1FBF0F000F0CAFB08B1012070BD102CF6
:1006800007D200222146501E00F042F86C60002084
:1006900070BD012070BD0000440400204004002013
:1006A00008B500BF1148806940F001000F4988611A
:1006B0000846806900F00100009000BF00BF00BF45
:1006C0000846C06940F08050C8610846C06900F023
:1006D0008050009000BF00BF00BF0549486820F06F
:1006E000E06040F00070486000BF08BD00100240AC
:1006F0000000014000280ADB00F01F01012202FA7D
:1007000001F14009800000F1E020C0F800117047BD
:1007100010B4184B1B68C3F30223C3F1070CBCF1E0
:10072000040F01D94FF0040C1C1D072C01D200232B
:1007300000E0DB1E012404FA0CFCACF1010C0CEA15
:100740000101994004FA03F35B1E1A40114300288B
:1007500006DB00F1E020090180F8001410BC7047AE
:1007600000F00F0000F1E020090180F8141D10BC1A
:10077000704700000CED00E000F00700064A116829
:100780004FF6FF03194041EA002040F0FD7040F0B1
:1007900080601060704700000CED00E02DE9F0472C
:1007A00004460D46002C17D0DFF85C81D8F8000015
:1007B00000F00700A84212D2D8F8000020F007008D
:1007C0002843C8F80000D8F8000000F00700A8424D
:1007D00005D00120BDE8F0870120BDE8F087206842
:1007E0004A4E10F0020F14D010F0040F03D07068BE
:1007F00040F4E0607060207810F0080F03D070685B
:1008000040F460507060706820F0F001A068084308
:100810007060207810F0010F3AD06068012806D08F
:1008200002280BD0316811F0020F27D00AE031689E
:1008300011F4003F06D10120BDE8F087316811F0C6
:10084000007F18D0716821F0030108437060FFF742
:10085000E5FE07467068616800F00C00B0EB810FA0
:1008600016D041F28839FFF7D9FEC01B484508D998
:100870000320BDE8F0870120BDE8F0870120BDE836
:10088000F0877068616800F00C00B0EB810FEAD16E
:10089000D8F8000000F00700A8420FD9D8F80000EF
:1008A00020F007002843C8F80000D8F8000000F046
:1008B0000700A84202D00120BDE8F087207810F0A0
:1008C000040F05D07068E16820F4E06008437060B0
:1008D000207810F0080F06D07068216920F460506D
:1008E00040EAC100706000F03FF87168084AC1F347
:1008F0000311515CC8400749086007480068FFF7CA
:10090000ADFE0020BDE8F08700200240001002404C
:1009100060250008400400204804002001480068C9
:10092000704700004004002000B5FFF7F7FF0449BE
:100930004968044AC1F30221515CC84000BD00006F
:10094000001002407025000800B5FFF7E7FF0449DA
:100950004968044AC1F3C221515CC84000BD00008F
:10096000001002407025000885B015A08368426819
:100970000168C068039302920191049014A000687A
:100980000090144B5968144801F00C02042A11D04D
:10099000082A0FD101A8C1F38342805C11F4803F83
:1009A0000AD05968C1F340411DF801100A4A50436A
:1009B000B0FBF1F005B07047084905B048437047F7
:1009C00002030405060708090A0B0C0D0E0F101090
:1009D000010200000010024000127A0000093D00F0
:1009E0002DE9F84F0446002C0FD02078F84D10F078
:1009F000010F6CD0686800F00C0004280CD0686807
:100A000000F00C00082803D010E00120BDE8F88FAA
:100A1000686810F4803F09D0286810F4003F56D071
:100A20006068002853D10120BDE8F88F6068B0F5F8
:100A3000803F15D0C8B1B0F5A02F1FD0286820F492
:100A400080302860286820F480202860606858B3CF
:100A5000FFF7E4FD0646286810F4003F17D036E0A3
:100A6000286840F480302860F0E7286820F480305F
:100A70002860286820F480202860E7E7286840F490
:100A800080202860286840F480302860DEE7FFF787
:100A9000C5FD801B642802D90320BDE8F88F2868B3
:100AA00010F4003FF3D012E0FFF7B8FD06462868C7
:100AB00010F4003F0BD0FFF7B1FD801B642802D972
:100AC0000320BDE8F88F286810F4003FF3D12078A8
:100AD000C04F10F0020F4FF0010B4FF0000854D040
:100AE000686810F00C0F14D0686800F00C0008283B
:100AF00003D1686810F4803F0BD0206978B3C7F841
:100B000000B0FFF78BFD0646286810F0020F12D0E8
:100B10001DE0286810F0020F05D02069012802D0DE
:100B20000120BDE8F88F2868616920F0F80040EAEC
:100B3000C100286029E0FFF771FD801B022802D95F
:100B40000320BDE8F88F286810F0020FF3D0286862
:100B5000616920F0F80040EAC100286015E0FFE775
:100B6000C7F80080FFF75AFD0646286810F0020F0C
:100B70000BD0FFF753FD801B022802D90320BDE8EC
:100B8000F88F286810F0020FF3D1207810F0080FCA
:100B900030D09148A169C1B1C0F800B0FFF73EFD67
:100BA0000646686A10F0020F0BD1FFF737FD801B75
:100BB000022802D90320BDE8F88F686A10F0020FFE
:100BC000F3D0012001F042FA14E0C0F80080FFF7F2
:100BD00025FD0646686A10F0020F0BD0FFF71EFDD8
:100BE000801B022802D90320BDE8F88F686A10F044
:100BF000020FF3D1207810F0040F6FD00026E869BF
:100C000010F0805F08D1E86940F08050E861E86941
:100C100000F0805000900126DFF8C0A1DAF8000053
:100C200010F4807F1BD1DAF8000040F48070CAF81D
:100C30000000FFF7F3FC8146DAF8000010F4807F33
:100C40000DD1FFF7EBFCA0EB0900642802D90320CB
:100C5000BDE8F88FDAF8000010F4807FF1D0E0688A
:100C6000012816D0D0B1052821D0286A20F0010033
:100C70002862286A20F004002862E06841F2883A7D
:100C800068B3FFF7CBFC8146286A10F0020F17D03B
:100C90003AE0286A40F001002862EEE7286A20F076
:100CA00001002862286A20F004002862E5E7286A2B
:100CB00040F004002862286A40F001002862DCE766
:100CC000FFF7ACFCA0EB0900504502D90320BDE8BA
:100CD000F88F286A10F0020FF2D015E01AE0FFE753
:100CE000FFF79CFC8146286A10F0020F0CD0FFF73A
:100CF00095FCA0EB0900504502D90320BDE8F88F10
:100D0000286A10F0020FF2D1012E03D1E86920F019
:100D10008050E861E069E8B3696801F00C010829D6
:100D20005ED0022810D0C7F86080FFF777FC044639
:100D3000286810F0007F66D0FFF770FC001B0228C7
:100D400041D90320BDE8F88FC7F86080FFF766FC43
:100D50000646286810F0007F0BD0FFF75FFC801B71
:100D6000022802D90320BDE8F88F286810F0007F20
:100D7000F3D1206AB0F5803F05D16868A16820F4FE
:100D8000003008436860616A206A0843696821F49A
:100D9000741100E037E008436860C7F860B0FFF7FF
:100DA0003DFC0446286810F0007F2CD1FFF736FC8C
:100DB000001B022802D90320BDE8F88F286810F034
:100DC000007FF3D01FE0286810F0007FB4D11AE054
:100DD0000010024000004242800442420070004085
:100DE00001280DD06868226A00F48031914204D154
:100DF000616A00F47010884205D00120BDE8F88FC8
:100E00000120BDE8F88F0020BDE8F88F401EB0F14A
:100E1000807F01D3012070474FF0E0214861044AF0
:100E2000F0201070002088610720086100207047C2
:100E300023ED00E07047704730B490F83C20012A61
:100E400030D0012480F83C40022280F83D20026826
:100E5000D2F804C093682CF0700C0D6845EA0C0CB5
:100E6000C2F804C00268A2F1804CBCF5963C0CD0DC
:100E7000B2F1804F09D0A2F1804CBCF5806C04D057
:100E8000A2F1804CBCF5006C04D123F080034968CA
:100E90001943916080F83D40002180F83C1030BC3F
:100EA0000020704730BC0220704710B50446002C6B
:100EB00003D094F83D0010B107E0012010BD0020E0
:100EC00084F83C00204600F01FF8022084F83D0022
:100ED000211D206801F03EF9012084F8460084F8C5
:100EE0003E0084F83F0084F8400084F8410084F814
:100EF000420084F8430084F8440084F8450084F8F4
:100F00003D00002010BD000038B504461A49206895
:100F1000884216D100BF1948806940F40060174923
:100F200088610846806900F40060009000BF00BF3F
:100F3000002211461920FFF7EBFB1920FFF7DAFB1F
:100F400019E00F492068884215D100BF0B48C069DD
:100F500040F004000949C8610846C06900F0040077
:100F6000009000BF00BF002211461E20FFF7D0FBFB
:100F70001E20FFF7BFFB38BD002C014000100240CF
:100F80000008004090F83D10012901D00120704771
:100F9000022180F83D100168CA6842F00102CA606F
:100FA0000068A0F18041B1F5963112D0B0F1804FC8
:100FB0000FD0A0F18041B1F580610AD0A0F180414D
:100FC000B1F5006105D0016841F001010160002028
:100FD0007047816801F007010629F8D0016841F0E7
:100FE00001010160F3E70168CA6822F00102CA60EA
:100FF00001680A6A41F211131A4207D10A6A9B106A
:101000001A4203D10A6822F001020A60012180F825
:101010003D100020704770B5044694F83C0001284C
:1010200018D0012584F83C50022084F83D00206847
:10103000826822F0770222F47F428260086850289A
:1010400032D00EDC20284DD006DC00284AD01028F3
:101050004DD147E0022070BD302843D0402846D112
:1010600036E060282AD0702806D0B0F5805F3ED0E8
:10107000B0F5005F3BD10BE0CB684A688968206817
:1010800001F0A4F82068816841F0770181602EE0CA
:10109000CB684A688968206801F098F82068816800
:1010A00041F48041816022E0CA684968206801F00B
:1010B000A0F85021206801F094F818E0CA68496847
:1010C000206801F0A9F86021206801F08AF80EE09C
:1010D000CA684968206801F08CF84021206801F056
:1010E00080F804E022680146104601F07AF884F89E
:1010F0003D50002084F83C0070BD704770B5044638
:10110000206801694FF0000511F0020F17D0C16887
:1011100011F0020F13D0E91E016101202077206831
:10112000806910F0030F03D02046FFF7E6FF05E0CB
:10113000204600F09DF8204600F09BF825772068B7
:10114000016911F0040F18D0C16811F0040F14D018
:101150006FF004010161022020772068806910F49B
:10116000407F03D02046FFF7C8FF05E0204600F08F
:101170007FF8204600F07DF825772068016911F09E
:10118000080F18D0C16811F0080F14D06FF00801D3
:101190000161042020772068C06910F0030F03D09C
:1011A0002046FFF7AAFF05E0204600F061F8204640
:1011B00000F05FF825772068016911F0100F18D052
:1011C000C16811F0100F14D06FF0100101610820F8
:1011D00020772068C06910F4407F03D02046FFF7D5
:1011E0008CFF05E0204600F043F8204600F041F86F
:1011F00025772068016911F0010F09D0C16811F04D
:10120000010F05D06FF001010161204600F032F8B6
:101210002068016911F0800F09D0C16811F0800FBA
:1012200005D06FF0800101612046FFF703FE2068C2
:10123000016911F0400F09D0C16811F0400F05D0CD
:101240006FF040010161204600F0BCF820680169A0
:1012500011F0200F0BD0C16811F0200F07D06FF0F4
:10126000200101612046BDE87040FFF7E4BD70BD7C
:101270007047704710B504464548844274D14548CC
:101280000088401C42F2107190FBF1F201FB120049
:101290004049088008460088032190FBF1F201FBD9
:1012A0001200002860D13C48008800285CD03B48F0
:1012B0000088401C394908803948008800EBC0018B
:1012C00001EB0010374901EB800037490988405C89
:1012D00032490988884247DC00203049088032487A
:1012E0000088401C304908802D48008800EBC00170
:1012F00001EB00102B4901EB80002B490988405C71
:10130000FF2801D1012000E000202549098801EBD8
:10131000C10202EB0111254A02EB8101224A128827
:10132000895CFF2901D1012100E00021084338B187
:1013300000201D490880184908801D48FFF753FE0A
:101340001748008800EBC00101EB0010174901EBC2
:10135000800015490988405C801C164931F810004E
:101360001549086000F016FE114884420ED113485A
:10137000006808B9012000E0002010490860084614
:1013800002784FF480510E48FFF741F910BD00007C
:10139000BC0400203C040020220000201C0000208F
:1013A0001E000020440200202000002050000020E9
:1013B0000405002026000020140000201800002052
:1013C000000801407047704770470000F8B50446B8
:1013D00022681068D168536900F00F0CBCF1000F4F
:1013E0000AD110F0200F07D011F0200F04D02046B2
:1013F000BDE8F84000F04FBF0025BCF1000F6DD0F4
:1014000003F0010C01F490765CEA060666D010F059
:10141000010F06D011F4807F03D0226C42F001024C
:10142000226410F0040F06D013F0010F03D0226CD9
:1014300042F00202226410F0020F06D013F0010FF6
:1014400003D0226C42F00402226410F0080F08D08E
:1014500001F0200252EA0C0203D0226C42F0080292
:101460002264226C002A2FD010F0200F05D011F03A
:10147000200F02D0204600F00EFF20684069C0F324
:101480008010216C11F0080F00D110B3204600F03D
:10149000DDFE2068416911F0400F16D0416921F04E
:1014A00040014161A06B60B147494163A06BFEF709
:1014B00043FF002808D0A06B416B01B0BDE8F040AD
:1014C00008472046FFF780FFF8BD2046FFF77CFF66
:1014D000F8BD2046FFF778FF2564F8BD236B012B8C
:1014E0005BD110F0100F58D011F0100F55D01068CC
:1014F0005068009050694FF0200310F0400F2ED03C
:10150000A16B0868406880B20028E6D0B4F82CC00F
:101510008445E2D9E0858869202818D0D06820F475
:101520008070D0602068416921F00101416120682C
:10153000416921F04001416184F83E302563206813
:10154000C16821F01001C160A06BFEF7D0FEA08D34
:10155000E18D401A81B22046FFF735FFF8BDA08D1E
:10156000E18D401A81B2E08D0028F7D00029F5D036
:10157000D06820F49070D0602068426922F00102A7
:10158000426184F83E3025632068C26822F0100270
:10159000C2602046FFF717FFF8BD10F0800F07D09C
:1015A00011F0800F04D02046BDE8F84000F036BFAF
:1015B00010F0400FF0D011F0400FEDD02046BDE804
:1015C000F84000F05BBE00003D22000870B5044604
:1015D000002C04D094F83D00002510B106E0012055
:1015E00070BD84F83C50204600F022F8242084F896
:1015F0003D002068C16821F40051C160204600F020
:10160000A9FE2068016921F49041016120684169C7
:1016100021F02A0141612068C16841F40051C16094
:101620002564202084F83D0084F83E00002070BD31
:1016300010B586B0044600200290039004900590F7
:101640001E492068884237D100BF1D48806940F498
:1016500080401B4988610846806900F48040019001
:1016600000BF00BF00BF0846806940F004008861E9
:101670000846806900F00400019000BF00BF4815D3
:101680000290022003900320059002A90D48FEF766
:10169000B9FE4FF480600290002003900120049076
:1016A00002A90848FEF7AEFE002211462520FFF7EA
:1016B0002FF82520FFF71EF806B010BD00380140B6
:1016C00000100240000801407047704700BFFEE76D
:1016D00070B5FA480078142807DD1420F74908701F
:1016E00000200978F64A42F82100F4480078F449CD
:1016F00051F82000F349884205D90846EF49097896
:10170000EF4A42F821000121EF48FEF779FF48B384
:101710000221ED48FEF774FF20B34FF48061EA48E0
:10172000FEF76EFFF0B14FF40061E748FEF768FF87
:10173000C0B14FF48051E448FEF762FF90B14FF41E
:101740000051E148FEF75CFF60B14FF48041DE4894
:10175000FEF756FF30B14FF40041DB48FEF750FF73
:1017600000284AD10121D848FEF74AFF10B30221D0
:10177000D548FEF745FFE8B14FF48061D248FEF747
:101780003FFFB8B14FF40061CF48FEF739FF88B191
:101790004FF48051CC48FEF733FF58B14FF400515D
:1017A000C948FEF72DFF28B14FF48041C648FEF727
:1017B00027FF40B9C548008828B10020C3490880E8
:1017C0000120C3490880C2480088B0B10020C04948
:1017D0000880BB490862C861886148610861C860C7
:1017E000886048600860B5490872C871887148719E
:1017F0000871C8708870487008700121B248FEF7FF
:10180000FFFEC8BBB3480078012826D10020B149AB
:101810000870B1490880AD49088000224FF400717A
:10182000A948FEF7F4FEAD480088C0EBC000AC4903
:1018300031F81000AB49086000F0ACFB0A20FEF75D
:10184000CDFDA948FFF79EFB9C480078401C9B49B2
:10185000087000200978994A5054984800789849AF
:1018600051F82000401C95490978954A42F821001A
:101870000120FEF7B3FD0EE0FFE70122510292487E
:10188000FEF7C5FE9348007828B9012091490870F9
:101890009548FFF7A8FB02218B48FEF7B1FE98BBE5
:1018A00092480078012820D10020904908708B4888
:1018B0000088C0EBC000401C894931F810008949FC
:1018C000086000F067FB8848FFF75CFB00224FF4DC
:1018D00080717D48FEF79BFE78480078401C774970
:1018E000087001200978754A50547448007874498A
:1018F00051F82000401C71490978714A42F82100D2
:101900000120FEF76BFD0EE0FFE7012211026E4899
:10191000FEF77DFE7548007828B9012073490870EC
:101920007148FFF760FB4FF480616748FEF768FE7F
:1019300090BB6F48007801281FD100206C490870C7
:1019400066480088C0EBC000801C654931F8100073
:101950006449086000F01EFB6348FFF713FB002298
:1019600080215948FEF753FE54480078401C5349E3
:10197000087002200978514A505450480078504964
:1019800051F82000401C4D4909784D4A42F8210089
:101990000120FEF723FD0EE0FFE7012280214A48E7
:1019A000FEF735FE5248007828B9012050490870EA
:1019B0004D48FFF718FB4FF400614348FEF720FE47
:1019C00090BB4C48007801281FD10020494908707D
:1019D00042480088C0EBC000C01C414931F81000EB
:1019E0004049086000F0D6FA3F48FFF7CBFA0022E2
:1019F00040213548FEF70BFE30480078401C2F4947
:101A00000870032009782D4A50540120FEF7E6FCA7
:101A10002A4800782A4951F82000401C27490978B3
:101A2000274A42F821000EE0FFE701224021264824
:101A3000FEF7EDFD2F48007828B901202D490870E8
:101A40002948FFF7D0FA4FF480511F48FEF7D8FD20
:101A500090BB2948007801281FD100202649087032
:101A6000002220211848FEF7D2FD1C480088C0EB58
:101A7000C000001D1A4931F810001A49086000F032
:101A800089FA1948FFF77EFA0C480078401C0B4988
:101A9000087004200978094A50540120FEF79EFC82
:101AA00006480078064951F82000401C034909788F
:101AB000034A42F821002FE020E00000A4040020A7
:101AC00050040020B3498C7E000C0140220000200D
:101AD0003A040020000000202000002038040020EC
:101AE0002600002014000020040500200100002032
:101AF000020000200300002004000020C1480078FC
:101B000050B901222021C048FEF781FD0120BD49C6
:101B10000870BE48FFF767FA4FF40051BA48FEF765
:101B20006FFD90BBBA48007801281FD10020B8494A
:101B3000087000221021B448FEF769FDB5480088FE
:101B4000C0EBC000401DB44931F81000B349086033
:101B500000F020FAAD48FFF715FAB1480078401CB4
:101B6000AF49087005200978AD4A5054AC48007858
:101B7000AC4951F82000401CA9490978A94A42F80B
:101B800021000120FEF72AFC0EE0FFE701221021D0
:101B90009D48FEF73CFD9E48007828B901209C49ED
:101BA00008709A48FFF71FFA4FF480419648FEF7F5
:101BB00027FD90BB9C48007801281FD100220821F6
:101BC0009148FEF724FD002097490870914800884D
:101BD000C0EBC000801D904931F810008F490860AB
:101BE00000F0D8F98948FFF7CDF98D480078401CFE
:101BF0008B49087006200978894A50548848007833
:101C0000884951F82000401C85490978854A42F8E6
:101C100021000120FEF7E2FB0EE0FFE70122082190
:101C20007948FEF7F4FC8048007828B901207E4905
:101C300008707648FFF7D7F94FF400417248FEF775
:101C4000DFFCF8B979480078012821D100207749D4
:101C500008706E48FFF796F90020754908807548AE
:101C6000008801280AD174490988481CC11700EB73
:101C700091718910A0EB81016F4A118001206D499B
:101C8000088005E06948007810B9012067490870AC
:101C90004FF480716948FEF7B3FCE8BB68480078F0
:101CA00001283DD10020664908700120654908805F
:101CB00001242CE057480088C0EBC0005849095D5A
:101CC0000844554931F810005449086000F062F9A1
:101CD0004E48FFF757F9534850F824505049095DD2
:101CE000491C594A505CFEF775FA06E06D1E7820D3
:101CF00000F0DDFB0120FEF771FB002DF6D143481B
:101D0000FFF771F93220FEF769FB601C84B244488A
:101D10000078A042CEDA03E0FFE7012048490870CE
:101D20004A480078A0B14A48007888B1494800780C
:101D300070B14948007858B13248007840B1344811
:101D4000007828B13848007810B13848007878BB5E
:101D50003E48007820B93C494878FEF73BFA50E00D
:101D60003B48007820B938498878FEF733FA48E0D4
:101D70003848007820B93449C878FEF72BFA40E09B
:101D80003548007820B930490879FEF723FA38E061
:101D90001C48007820B92C494879FEF71BFA30E03E
:101DA0001B48007828B928498879FEF713FA28E0FB
:101DB00014E01D48007820B92349C879FEF70AFAD3
:101DC0001FE01A48007820B91F49087AFEF702FA86
:101DD00017E01D49887AFEF7FDF912E01A49887A62
:101DE000FEF7F8F91348008858B900224FF48051E3
:101DF0001248FEF70CFC00200D4908800348FFF74D
:101E0000F2F870BD04000020000C01400405002021
:101E100005000020380400202600002014000020C7
:101E2000A404002050040020060000200700002029
:101E300020000020220000201E0000200008014099
:101E4000080000203A0400200900002000000020C3
:101E500001000020020000200300002000B585B032
:101E60000020019002900390049000BF2A488069EE
:101E700040F00400284988610846806900F00400A9
:101E8000009000BF00BF00BF0846806940F0080016
:101E900088610846806900F00800009000BF00BF1C
:101EA000012241F2FF011D48FEF7B1FB00224FF471
:101EB0007E711B48FEF7ABFB41F2FF000190012051
:101EC000029003900220049001A91448FEF79AFAA8
:101ED0004FF603400190002002900120039001A9D9
:101EE0000F48FEF78FFA4FF48070019000200290A7
:101EF0000120039001A90948FEF784FA4FF47E708F
:101F000001900120029003900220049001A904484E
:101F1000FEF778FA05B000BD00100240000801404D
:101F2000000C014000B587B000200390049005909C
:101F30000690019002901548154908603F204860BE
:101F40000021134881604CF25031C16000210161D1
:101F500041618161FEF7A9FF08B1FEF7C7F94FF4AF
:101F60008050039003A90A48FFF755F808B1FEF71F
:101F7000BDF900200190029001A90548FEF75CFF21
:101F800008B1FEF7B3F907B000BD0000002C014016
:101F9000BC04002000B587B0002003900490059099
:101FA0000690019002901648164908603F2048604C
:101FB00000211448816014480068C0F58031114840
:101FC000C160002101618161FEF76FFF08B1FEF77A
:101FD0008DF94FF48050039003A90A48FFF71BF8CE
:101FE00008B1FEF783F900200190029001A905488D
:101FF000FEF722FF08B1FEF779F907B000BD000037
:1020000000080040040500201400002010B50B4813
:102010000B4908604FF41650486000210848816061
:10202000C16001610C21416100218161C161FFF743
:10203000CDFA08B1FEF75AF910BD00000038014092
:102040004C05002000BFFEE77047704781B007498C
:102050004FF4FA520968B1FBF2F14843009000BF17
:102060000098411E0091FAD201B070474004002050
:10207000704710B5FEF7D8FA10BD00B58FB0282113
:1020800005A8FEF758F814216846FEF754F8022018
:1020900005900120099010200A9002200C90002148
:1020A0000D914FF460110E9105A8FEF799FC08B14F
:1020B000FEF71CF90F2000900220019000200290F2
:1020C0004FF4806003900020049002216846FEF7E0
:1020D00065FB08B1FEF70AF90FB000BD11480068B2
:1020E00040F001000F490860084640680E4908406A
:1020F0000C494860084600680C49084009490860D6
:102100000846006820F4802008600846406820F4F3
:10211000FE0048604FF41F008860C803044908604F
:1021200070470000001002400000FFF8FFFFF6FEBD
:1021300008ED00E010B50248FEF7E0FF10BD00001A
:10214000BC04002010B50248FEF7D8FF10BD000007
:102150000405002030B40268194B1A4CDFF868C03F
:10216000984206D0B0F1804F03D0A04201D0604524
:1021700003D122F070024D682A43984206D0B0F194
:10218000804F03D0A04201D0604505D122F44072B7
:10219000D1F80CC04CEA0202D1F814C022F080023F
:1021A00042EA0C0202608A68C2620A68826298424D
:1021B00001D1096901630121416130BC7047000010
:1021C000002C01400004004000080040D0F808C086
:1021D0002CF47F4C42EA0322114341EA0C01816056
:1021E0007047826822F07002114341F0070181605C
:1021F0007047036AD0F820C02CF0010CC0F820C052
:10220000D0F818C02CF0F00C4CEA021223F00A03AC
:102210001943826101627047036A23F0100303626D
:10222000D0F818C0036A2CF4704C4CEA023223F048
:10223000A00343EA011182610162704710B5406A50
:102240000021C185C184FFF7BFF810BD0168CA68CD
:1022500022F49072CA6001684A6922F001024A6160
:10226000016B012904D10168CA6822F01002CA601A
:10227000202180F83E1000210163704710B50168ED
:10228000CA6822F04002CA60202180F83D10FFF7A2
:102290001CFA002010BD08B590F83E10222901D08C
:1022A000022008BD8268B2F5805F01D1016929B1C1
:1022B000816AB2F5805F1DD052B10BE0816A02687D
:1022C0005268C2F308020A80816A891C816209E0AF
:1022D00002697AB10268526802F07F020A70816A6C
:1022E000491C8162C18D491E0904090CC18505D0B4
:1022F000002008BD026852680A70F0E70168CA68E9
:1023000022F02002CA600168CA6822F48072CA60A2
:1023100001684A6922F001024A61202180F83E10DA
:10232000016B012903D0FFF7CFF9002008BD002180
:1023300001630168CA6822F01002CA6001680A6875
:1023400012F0100F02D00A6849680091818DFFF7E2
:102350003AF8EAE770B5044620680169E26821F4BA
:102360004051114301612169A0680843616901433B
:102370002068C26822F4037222F4A0521143C160A3
:1023800020684169A26921F44071114341612068CC
:10239000A0F18041B1F59C313AD0FEF7C5FA00EBCF
:1023A000C00101EB001061681B4A8900B0FBF1F32A
:1023B000A2FB0353B0FBF1FC5B096FF018056B4304
:1023C0000CEB83034FF0320C0CEB0313A2FB035313
:1023D0005B0903F0F005B0FBF1F3A2FB03635B09BB
:1023E00005EB0313B0FBF1F5B0FBF1F0A2FB00101D
:1023F00040096FF01801484305EB80000CEB00101A
:10240000A2FB00102168C0F343101844886070BD1F
:10241000FEF79AFAC3E700001F85EB5190F83D10D4
:10242000212901D0022070478168B1F5805F01D178
:10243000016961B1016A4A1C02620268097851604F
:10244000C18C491E0904090CC1840AD013E0016A39
:1024500002680988C1F308015160016A891C0162A0
:10246000EEE70168CA6822F08002CA600068C168AD
:1024700041F04001C16000207047000010B50248E3
:10248000FEF7A4FF10BD00004C05002000BFFEE7D2
:1024900002E008C8121F08C1002AFAD1704770472D
:1024A000002001E001C1121F002AFBD1704702E0A9
:1024B000401E00BF00BF0028FAD17047FEF7BCF8ED
:1024C000FFF7DBFDFFF7CAFCFFF764FDFFF72AFD0E
:1024D000FFF79CFD1948FEF755FD2DE018480088D0
:1024E00001281ED117480088012823D10020154952
:1024F00008801548FEF746FD1448008800EBC0012F
:1025000001EB0010124901EB800012490988405C80
:10251000801C114931F8100010490860FFF73AFD9E
:1025200008E00848008828B90120064908800648C4
:10253000FEF759FDFFF7CCF8D0E70000BC040020FF
:102540002200002024000020040500201E0000209E
:102550005000002020000020260000201400002051
:102560000000000000000000010203040607080943
:10257000000000000102030498250008000000206C
:102580005004000070010008B42600085004002028
:1025900040050000A0240008620001F00D039F2503
:1025A0000D9949411F0109FF0001202F8CF85BF9AB
:1025B00015FA67FA04FB90FB0CFC44FCACFC09FD2B
:1025C00034FD82FDC8FD06FE22FE4CFE85FE9AFE0D
:1025D000C1FEE4FE03FF010203010410040304052D
:1025E0000340070506050403010623010503011145
:1025F0005D012F0111562102300805080706050369
:102600000568000843030104030201025F416410EE
:10261000050A090A036110080609080906080901E4
:102620006006080A0A090917000D37050608080898
:10263000090A0908070808D3252810050506060811
:102640004E330608D31203C911150147C6152C4293
:102650000355151F92050C2405010202049AF11876
:102660000132CD720201320403215C5106220303C0
:102670000542F47160615D510D11C80547F411BF49
:1026800052060419AC420203110D6117310F31E1FA
:102690000538F421B2520605652E310F0549F4A51F
:1026A0002C01220C0D3B9403100524F40001075269
:0426B00010BF000057
:04000005080000ED02
:00000001FF
